:020000040800F2
:10000000FCBF002035060008F7060008F7060008C8
:10001000F7060008F7060008F706000800000000D1
:10002000000000000000000000000000F7060008CB
:10003000F706000800000000F7060008F7060008B1
:10004000F9070008BF0700088D070008AD07000882
:10005000B1090008790A0008770800080F090008AC
:10006000110800085B0800089D0A0008B507000891
:100070002D070008036801499B6A184781000008A2
:1000800070B5044616460D4651B10B1F022B18D809
:1000900002F0070300EB83035B6B93B1984710E01A
:1000A000022384F86110A0F86230036890F86020A1
:1000B0001B6908469847084B284663632368DB683A
:1000C000984704EB85035B692BB1324629462046ED
:1000D000BDE87040184770BDA501000838B50D4651
:1000E00003680446DB68887898476B88002B14BF48
:1000F0000323022384F8623038BD38B50D46044628
:10010000036801211B6A05F07F00984723680121DD
:100110001B6A45F080009847002384F8633038BD9F
:10012000836810B504461BB1416D98470023A36056
:1001300010BD70B5044694F863300846023B032BAB
:1001400025D8DFE803F002022527B4F85C5094F8C4
:100150006030A16D9D4228BF1D462368AEB2DB69A9
:1001600032469847B4F85C20A36D921B2B4492B2A0
:10017000A365A4F85C2052B994F86330022B03D035
:1001800094F860309D4202D0042384F8633070BD3F
:100190000623FAE70023204684F86330BDE8704068
:1001A000FFF7BEBF0529F8B50446164609D0062953
:1001B00003D0042943D11146B0E0002380F8633016
:1001C000836094F86330656D012B24D03BB1062B1E
:1001D00036D031462046BDE8F840FFF78EBF236891
:1001E000B4F85E209B692946304698470828F0D12C
:1001F00005F10803A365EB88A4F85C3095F90020AD
:10020000002A2BDB53B3B4F85E209A42E1D30123DA
:1002100084F8633013E02368B4F85C209B69A16D17
:1002200030469847B4F85C3082B29A42D1D815D0A3
:1002300010469B1AA4F85C30A36D1844A065F8BD65
:100240000022236830469B691146984700232046C8
:1002500084F86330BDE8F840FFF762BFB4F85E3061
:1002600005F10807A4F85C306368A765C3B92B786B
:1002700003F06303012B00F09080F3B1022BA8D1AF
:100280006B78012B00F08E805FB2002F00F08E8023
:10029000032B9ED1012123681B6A287998472AE005
:1002A00004F108022946204698470028DFD001289B
:1002B00021D002288DD10523AAE76B78092B88D895
:1002C00001A252F823F000BF53030008D301000835
:1002D000D3010008D3010008D30100085903000826
:1002E00025030008D3010008F10200087303000889
:1002F00094F861302B7295F9003046F08000002BA5
:100300005BDAEB88B4F85C2001469A422ABFA4F875
:100310005C3003230223204684F86330BDE8F840B4
:10032000FFF707BF40F2FE336A889A4206D123687E
:1003300038461B6B9847A4F85C00DCE72369002B68
:100340003FF447AF04F15C0204F158012846984796
:10035000ADE700232B81CEE723681B689847C307CE
:1003600004D529462046FFF7B9FEC4E7164BA36023
:10037000C1E7E368002B3FF42CAFAF782046394645
:10038000984701287FF425AF002F14BF04230323CF
:1003900084F8617084F86230ADE76B78002B7FF4ED
:1003A00018AFD7E7236800211B6A76E7236828790E
:1003B0005B6A98476F7228729DE700222368114696
:1003C000DB69984777E700BFDD00000821B101290C
:1003D00005D000210846704741610121FAE7014B31
:1003E0004361F7E7310400084388180A022805D062
:1003F00003280CD0012811D00020704713881A2B35
:10040000084B0DD8187810800B6001207047DBB2C4
:10041000042BF1D8044850F82330F3E7034BF1E7FD
:100420001B20F0E7780B0008200C00089E0B00084A
:10043000BFF34F8F0549064BCA6802F4E0621343CD
:10044000CB60BFF34F8F00BFFDE700BF00ED00E0C2
:100450000400FA050222064B06499A7300225A73D9
:10046000054A5960521A9A60044A01201A6070477E
:1004700068010020001000080000040801000020AE
:10048000F8B50C7804F06304012C16D14B780A2BD4
:100490000ED00B2B40F09B808C88002C40F0978076
:1004A0004B8843B94B4A1373BDE8F840FFF7D2BFFE
:1004B000484B1B7B0B722046F8BD212C40F08780F7
:1004C0004C78062C7ED8DFE804F004082D4E6A6FC5
:1004D0007300414B13600124EDE73E4DAA7B052AD2
:1004E00070D80123934013F02C0F6BD0CE8816B92F
:1004F0000623AB73DFE7AB689E4203D908236B7317
:100500000A23F6E72B683246083168689847687313
:100510000028F5D16B6833446B60AB689E1BAE60FE
:100520000523E6E72B4B9A7B022A01D0092A49D101
:100530009A6812B9A0F85C20B6E7C988856D7F2A51
:1005400098BF11465C686F18661EBD4206D1521AEC
:10055000A0F85C1021449A605960BCE716F801CFFE
:1005600005F801CBF1E7142048720020194A4881B0
:10057000537B48730B72937B0B73023BDBB2082BEC
:1005800020D8012440F2891104FA03F30B4292D1DE
:10059000D90689D49B0715D5052393738BE70D4B9B
:1005A0009A7B0A2A0FD17FE70A4B9B7B0B7292E75B
:1005B000084B9A7B092A05D80123934013F41B7F2B
:1005C0007FF472AF034B0A229A730F225A730024EE
:1005D00071E700BF680100203104000808B5FFF78B
:1005E00039FF08220D4C0E4B84F860200D4A236021
:1005F000C4E915228022A4F85E200B4A5B68E26001
:100600000A4A012062600A4A226198472368012051
:100610009B6898472046FFF72DFDFBE77C000020F4
:1006200040000008E0000020CD030008810400081D
:10063000E903000830482422027630494A684FF026
:1006400030039A434FF010031A434A604FF480423C
:100650000A612B492B4A00230C680B60A41A19D09D
:1006600026494FF470634FF400624C689C43144376
:100670004C604FF480620A61082423490139FDD19E
:100680001E498A68D20A9B4101221A43A41801D04C
:10069000102CF6D14DF255010139FDD124220273FF
:1006A0000022027302763CB118481949886001683B
:1006B00081F30888436818471649174A174B51F8C1
:1006C000040B42F8040B9342F9D80020144A154B4E
:1006D00042F8040B9342FBD8134B31201860064BB1
:1006E00068229A710122DA701868800EFCD3022207
:1006F0001A71FFF773FFFEE700100240001401407B
:10070000FCBF0020D4327F15D5080200001000087D
:1007100000ED00E0340C0008000000207C00002008
:100720007C000020780100200020024030B512211A
:10073000017003214170124D124C2A6800F017F825
:100740006A6800F014F8AA6800F011F81C2334FA63
:1007500003F101F00F010929CCBF373130310230EC
:100760000170090A4170043BF1D5122030BD042309
:10077000D1B24C4004494C43120A013BF8D17047B6
:10078000E8F7FF1FC59D1C8193010001EC4B1A681F
:100790000F2132EA0122042118B1012189001961D7
:1007A000022152EA01221A6000207047E549803098
:1007B00088817047E34800894005400D7047E24A50
:1007C0000121CB0580B14901906908439061DD4961
:1007D000D0691843D06110691843106198431061C3
:1007E000BC20000208807047D069184203D09843AB
:1007F000D0610020CAE770470020D34AD169090EB2
:1008000005D30830CE4A9168890800D3203070475C
:1008100010B50207920ECD4B9B1830221C88640540
:10082000640F042C18D0802807D3C94800290CD1A4
:10083000C848012C09D0C84807E01202C74800295F
:1008400003D1C748012C00D0C64819880A4003D0FC
:100850004140000C0140198010BDBC490207920EB6
:1008600089584904802800D20902090F0139481E1D
:1008700089414842704730B5B44BBB4C000703EB8D
:10088000906304EB10641D88372010EA152034288B
:1008900015D0312808D0202814D0222812D026289C
:1008A00010D0FF2040B231E095EA1520C00904D2F3
:1008B00048F68F70054040351D801D882D02ED0BD8
:1008C00000D2083CA089850AAD02A5818005800D73
:1008D0002589A54C6D002D19824200D30246012ABC
:1008E00008D32C880C7005D0240A4C7002310435D2
:1008F000023AF4D81D886905490F042906D0012958
:1009000004D09A4A554005EA12451D8030BD70B5A5
:100910008E4B954C000703EB906304EB10641D882D
:10092000732000EA151043280CD0122808D00228A2
:100930000BD0222809D0622807D0FF2040B224E043
:10094000ED432D0AED0900D20834A2801046258817
:10095000854C6D002D19012A09D30C7802D04E78F0
:10096000360234432C8004350231023AF3D81D8814
:100970006905490F042908D07D4A012901D17D4A22
:100980009543554005EA12451D8070BD1AB51021EA
:100990004FF4007374480488244202D0A34200D369
:1009A000234608300139F6D1981A00D320281ABD01
:1009B00030B501231340D2180023022909D00123A6
:1009C000062906D00223002903D00423012900D0E0
:1009D00006231B020407240F2343A4005B4D2B5363
:1009E000002901D080281DD35F4DA4002D19FFF7E9
:1009F000CDFF3FD328800020A880062902D0564B87
:100A0000012906D1534BFFF7C1FF33D328810020C2
:100A1000A8814E4DA408285B58401B0C1840285351
:100A2000002925D113463E2A07D91F23134000D1A0
:100A3000203A9A431309403320325B024A4DA40006
:100A40002D19FFF7A3FF15D32881AB81454806294F
:100A500001D0012905D1FFF799FF0BD32880AB8086
:100A60003F483A4DA4082B5B4340000C03402B53F6
:100A7000012030BD002030BD0107890E334A3A4BBA
:100A8000521849005B1848F68F711088884310800F
:100A900000201880988018819881704733B4294BC2
:100AA000988807220240C10A2FD2010C07D2810B7D
:100AB0001AD2410B1BD2010B20D233BC70478025C8
:100AC000224800EB82000488230A02D304212A432F
:100AD00004E02D020521630500D30621AC4348F64E
:100AE0008F752C40048029E00721202422E01988FA
:100AF0000825A9431980032110241BE01988082523
:100B0000294319800221082414E007210F4A1648BE
:100B100048F68F751488AC431480002404808480C8
:100B200004818481043210300139F3D500221A8205
:100B30000021042424029888A043988039BC1847D7
:100B400000140140405C004000100240005C004086
:100B50001000BF8F3000FFCF2000FF8F00108FBF2D
:100B60004030CFFF00308FFF0060004000308FBF6B
:100B70003000BF8F00408FCF09021B00010103C06E
:100B8000320904000000FE010204092107C80080A8
:100B90000010010008034400460055000000120147
:100BA000000200000008830411DF00010102FE01C1
:100BB0001E0349006E007400650072006E00610043
:100BC0006C00200066006C0061007300680000008B
:100BD00004030904240359006F007500720020000B
:100BE00063006F006D00700061006E0079002000EE
:100BF0006E0061006D006500000024035300650075
:100C00006300750072006500200062006F006F00D5
:100C100074006C006F0061006400650072000000E9
:100C2000D00B0008D40B0008FA0B0008940B000846
:040C3000B00B0008FD
:100C340030B5440820D21A4B1A4C1B4D5C605D60E1
:100C4400023A17DB440507D102241C61586142248F
:100C54001C6100F01DF811D34FF001041C610D88D4
:100C6400058000F015F80BD30488A5420AD10230A0
:100C74000231E5E7002006E0032004E0042002E05E
:100C8400062000E007206424DC6080241C6130BD61
:100C9400DC686408FCD26409DC68DC60704700002E
:0C0CA4000020024023016745AB89EFCD22
:0400000508000000EF
:00000001FF
